{
  "contractName": "ETHEventTickets",
  "abi": [
    {
      "inputs": [
        {
          "internalType": "address",
          "name": "_marketplaceContract",
          "type": "address"
        }
      ],
      "stateMutability": "nonpayable",
      "type": "constructor"
    },
    {
      "anonymous": false,
      "inputs": [
        {
          "indexed": true,
          "internalType": "address",
          "name": "owner",
          "type": "address"
        },
        {
          "indexed": true,
          "internalType": "address",
          "name": "approved",
          "type": "address"
        },
        {
          "indexed": true,
          "internalType": "uint256",
          "name": "tokenId",
          "type": "uint256"
        }
      ],
      "name": "Approval",
      "type": "event"
    },
    {
      "anonymous": false,
      "inputs": [
        {
          "indexed": true,
          "internalType": "address",
          "name": "owner",
          "type": "address"
        },
        {
          "indexed": true,
          "internalType": "address",
          "name": "operator",
          "type": "address"
        },
        {
          "indexed": false,
          "internalType": "bool",
          "name": "approved",
          "type": "bool"
        }
      ],
      "name": "ApprovalForAll",
      "type": "event"
    },
    {
      "anonymous": false,
      "inputs": [
        {
          "indexed": false,
          "internalType": "uint256",
          "name": "",
          "type": "uint256"
        }
      ],
      "name": "NFTMinted",
      "type": "event"
    },
    {
      "anonymous": false,
      "inputs": [
        {
          "indexed": true,
          "internalType": "address",
          "name": "previousOwner",
          "type": "address"
        },
        {
          "indexed": true,
          "internalType": "address",
          "name": "newOwner",
          "type": "address"
        }
      ],
      "name": "OwnershipTransferred",
      "type": "event"
    },
    {
      "anonymous": false,
      "inputs": [
        {
          "indexed": true,
          "internalType": "address",
          "name": "from",
          "type": "address"
        },
        {
          "indexed": true,
          "internalType": "address",
          "name": "to",
          "type": "address"
        },
        {
          "indexed": true,
          "internalType": "uint256",
          "name": "tokenId",
          "type": "uint256"
        }
      ],
      "name": "Transfer",
      "type": "event"
    },
    {
      "inputs": [],
      "name": "MAX_SUPPLY",
      "outputs": [
        {
          "internalType": "uint16",
          "name": "",
          "type": "uint16"
        }
      ],
      "stateMutability": "view",
      "type": "function"
    },
    {
      "inputs": [
        {
          "internalType": "address",
          "name": "to",
          "type": "address"
        },
        {
          "internalType": "uint256",
          "name": "tokenId",
          "type": "uint256"
        }
      ],
      "name": "approve",
      "outputs": [],
      "stateMutability": "nonpayable",
      "type": "function"
    },
    {
      "inputs": [
        {
          "internalType": "address",
          "name": "owner",
          "type": "address"
        }
      ],
      "name": "balanceOf",
      "outputs": [
        {
          "internalType": "uint256",
          "name": "",
          "type": "uint256"
        }
      ],
      "stateMutability": "view",
      "type": "function"
    },
    {
      "inputs": [
        {
          "internalType": "uint256",
          "name": "",
          "type": "uint256"
        }
      ],
      "name": "color",
      "outputs": [
        {
          "internalType": "bytes3",
          "name": "",
          "type": "bytes3"
        }
      ],
      "stateMutability": "view",
      "type": "function"
    },
    {
      "inputs": [],
      "name": "gaTicketPrice",
      "outputs": [
        {
          "internalType": "uint256",
          "name": "",
          "type": "uint256"
        }
      ],
      "stateMutability": "view",
      "type": "function"
    },
    {
      "inputs": [
        {
          "internalType": "uint256",
          "name": "tokenId",
          "type": "uint256"
        }
      ],
      "name": "getApproved",
      "outputs": [
        {
          "internalType": "address",
          "name": "",
          "type": "address"
        }
      ],
      "stateMutability": "view",
      "type": "function"
    },
    {
      "inputs": [
        {
          "internalType": "address",
          "name": "owner",
          "type": "address"
        },
        {
          "internalType": "address",
          "name": "operator",
          "type": "address"
        }
      ],
      "name": "isApprovedForAll",
      "outputs": [
        {
          "internalType": "bool",
          "name": "",
          "type": "bool"
        }
      ],
      "stateMutability": "view",
      "type": "function"
    },
    {
      "inputs": [],
      "name": "name",
      "outputs": [
        {
          "internalType": "string",
          "name": "",
          "type": "string"
        }
      ],
      "stateMutability": "view",
      "type": "function"
    },
    {
      "inputs": [],
      "name": "owner",
      "outputs": [
        {
          "internalType": "address",
          "name": "",
          "type": "address"
        }
      ],
      "stateMutability": "view",
      "type": "function"
    },
    {
      "inputs": [
        {
          "internalType": "uint256",
          "name": "tokenId",
          "type": "uint256"
        }
      ],
      "name": "ownerOf",
      "outputs": [
        {
          "internalType": "address",
          "name": "",
          "type": "address"
        }
      ],
      "stateMutability": "view",
      "type": "function"
    },
    {
      "inputs": [],
      "name": "renounceOwnership",
      "outputs": [],
      "stateMutability": "nonpayable",
      "type": "function"
    },
    {
      "inputs": [
        {
          "internalType": "address",
          "name": "from",
          "type": "address"
        },
        {
          "internalType": "address",
          "name": "to",
          "type": "address"
        },
        {
          "internalType": "uint256",
          "name": "tokenId",
          "type": "uint256"
        }
      ],
      "name": "safeTransferFrom",
      "outputs": [],
      "stateMutability": "nonpayable",
      "type": "function"
    },
    {
      "inputs": [
        {
          "internalType": "address",
          "name": "from",
          "type": "address"
        },
        {
          "internalType": "address",
          "name": "to",
          "type": "address"
        },
        {
          "internalType": "uint256",
          "name": "tokenId",
          "type": "uint256"
        },
        {
          "internalType": "bytes",
          "name": "data",
          "type": "bytes"
        }
      ],
      "name": "safeTransferFrom",
      "outputs": [],
      "stateMutability": "nonpayable",
      "type": "function"
    },
    {
      "inputs": [
        {
          "internalType": "address",
          "name": "operator",
          "type": "address"
        },
        {
          "internalType": "bool",
          "name": "approved",
          "type": "bool"
        }
      ],
      "name": "setApprovalForAll",
      "outputs": [],
      "stateMutability": "nonpayable",
      "type": "function"
    },
    {
      "inputs": [
        {
          "internalType": "bytes4",
          "name": "interfaceId",
          "type": "bytes4"
        }
      ],
      "name": "supportsInterface",
      "outputs": [
        {
          "internalType": "bool",
          "name": "",
          "type": "bool"
        }
      ],
      "stateMutability": "view",
      "type": "function"
    },
    {
      "inputs": [],
      "name": "symbol",
      "outputs": [
        {
          "internalType": "string",
          "name": "",
          "type": "string"
        }
      ],
      "stateMutability": "view",
      "type": "function"
    },
    {
      "inputs": [
        {
          "internalType": "uint256",
          "name": "index",
          "type": "uint256"
        }
      ],
      "name": "tokenByIndex",
      "outputs": [
        {
          "internalType": "uint256",
          "name": "",
          "type": "uint256"
        }
      ],
      "stateMutability": "view",
      "type": "function"
    },
    {
      "inputs": [
        {
          "internalType": "address",
          "name": "owner",
          "type": "address"
        },
        {
          "internalType": "uint256",
          "name": "index",
          "type": "uint256"
        }
      ],
      "name": "tokenOfOwnerByIndex",
      "outputs": [
        {
          "internalType": "uint256",
          "name": "",
          "type": "uint256"
        }
      ],
      "stateMutability": "view",
      "type": "function"
    },
    {
      "inputs": [
        {
          "internalType": "address",
          "name": "from",
          "type": "address"
        },
        {
          "internalType": "address",
          "name": "to",
          "type": "address"
        },
        {
          "internalType": "uint256",
          "name": "tokenId",
          "type": "uint256"
        }
      ],
      "name": "transferFrom",
      "outputs": [],
      "stateMutability": "nonpayable",
      "type": "function"
    },
    {
      "inputs": [
        {
          "internalType": "address",
          "name": "newOwner",
          "type": "address"
        }
      ],
      "name": "transferOwnership",
      "outputs": [],
      "stateMutability": "nonpayable",
      "type": "function"
    },
    {
      "inputs": [
        {
          "internalType": "uint256",
          "name": "",
          "type": "uint256"
        }
      ],
      "name": "vipTicketHolders",
      "outputs": [
        {
          "internalType": "bool",
          "name": "",
          "type": "bool"
        }
      ],
      "stateMutability": "view",
      "type": "function"
    },
    {
      "inputs": [],
      "name": "vipTicketPrice",
      "outputs": [
        {
          "internalType": "uint256",
          "name": "",
          "type": "uint256"
        }
      ],
      "stateMutability": "view",
      "type": "function"
    },
    {
      "inputs": [],
      "name": "totalSupply",
      "outputs": [
        {
          "internalType": "uint256",
          "name": "",
          "type": "uint256"
        }
      ],
      "stateMutability": "view",
      "type": "function"
    },
    {
      "inputs": [
        {
          "internalType": "address",
          "name": "_wallet",
          "type": "address"
        }
      ],
      "name": "walletOfOwner",
      "outputs": [
        {
          "internalType": "uint256[]",
          "name": "",
          "type": "uint256[]"
        }
      ],
      "stateMutability": "view",
      "type": "function"
    },
    {
      "inputs": [],
      "name": "contractURI",
      "outputs": [
        {
          "internalType": "string",
          "name": "",
          "type": "string"
        }
      ],
      "stateMutability": "pure",
      "type": "function"
    },
    {
      "inputs": [],
      "name": "mint",
      "outputs": [
        {
          "internalType": "uint256",
          "name": "",
          "type": "uint256"
        }
      ],
      "stateMutability": "payable",
      "type": "function"
    },
    {
      "inputs": [
        {
          "internalType": "uint256",
          "name": "id",
          "type": "uint256"
        }
      ],
      "name": "tokenURI",
      "outputs": [
        {
          "internalType": "string",
          "name": "",
          "type": "string"
        }
      ],
      "stateMutability": "view",
      "type": "function"
    },
    {
      "inputs": [
        {
          "internalType": "uint256",
          "name": "id",
          "type": "uint256"
        }
      ],
      "name": "generateNftSvgByTokenId",
      "outputs": [
        {
          "internalType": "string",
          "name": "",
          "type": "string"
        }
      ],
      "stateMutability": "view",
      "type": "function"
    }
  ],
  "bytecode": "0x60806040526000600c60146101000a81548161ffff021916908361ffff160217905550612327600d60146101000a81548161ffff021916908361ffff16021790555062093a804262000052919062000394565b6010553480156200006257600080fd5b5060405162005b8b38038062005b8b83398181016040528101906200008891906200045b565b6040518060400160405280600f81526020017f4554484576656e745469636b65747300000000000000000000000000000000008152506040518060400160405280600581526020017f465843323200000000000000000000000000000000000000000000000000000081525081600090805190602001906200010c929190620002ab565b50806001908051906020019062000125929190620002ab565b505050620001486200013c620001dd60201b60201c565b620001e560201b60201c565b80600c60006101000a81548173ffffffffffffffffffffffffffffffffffffffff021916908373ffffffffffffffffffffffffffffffffffffffff1602179055506103e7600b6000018190555033600d60006101000a81548173ffffffffffffffffffffffffffffffffffffffff021916908373ffffffffffffffffffffffffffffffffffffffff16021790555050620004f1565b600033905090565b6000600a60009054906101000a900473ffffffffffffffffffffffffffffffffffffffff16905081600a60006101000a81548173ffffffffffffffffffffffffffffffffffffffff021916908373ffffffffffffffffffffffffffffffffffffffff1602179055508173ffffffffffffffffffffffffffffffffffffffff168173ffffffffffffffffffffffffffffffffffffffff167f8be0079c531659141344cd1fd0a4f28419497f9722a3daafe3b4186f6b6457e060405160405180910390a35050565b828054620002b990620004bc565b90600052602060002090601f016020900481019282620002dd576000855562000329565b82601f10620002f857805160ff191683800117855562000329565b8280016001018555821562000329579182015b82811115620003285782518255916020019190600101906200030b565b5b5090506200033891906200033c565b5090565b5b80821115620003575760008160009055506001016200033d565b5090565b6000819050919050565b7f4e487b7100000000000000000000000000000000000000000000000000000000600052601160045260246000fd5b6000620003a1826200035b565b9150620003ae836200035b565b9250827fffffffffffffffffffffffffffffffffffffffffffffffffffffffffffffffff03821115620003e657620003e562000365565b5b828201905092915050565b600080fd5b600073ffffffffffffffffffffffffffffffffffffffff82169050919050565b60006200042382620003f6565b9050919050565b620004358162000416565b81146200044157600080fd5b50565b60008151905062000455816200042a565b92915050565b600060208284031215620004745762000473620003f1565b5b6000620004848482850162000444565b91505092915050565b7f4e487b7100000000000000000000000000000000000000000000000000000000600052602260045260246000fd5b60006002820490506001821680620004d557607f821691505b602082108103620004eb57620004ea6200048d565b5b50919050565b61568a80620005016000396000f3fe6080604052600436106101b75760003560e01c80634f6ccce7116100ec578063a22cb4651161008a578063d4e28c9c11610064578063d4e28c9c1461064d578063e8a3d4851461068a578063e985e9c5146106b5578063f2fde38b146106f2576101b7565b8063a22cb465146105be578063b88d4fde146105e7578063c87b56dd14610610576101b7565b8063715018a6116100c6578063715018a6146105145780638146581a1461052b5780638da5cb5b1461056857806395d89b4114610593576101b7565b80634f6ccce71461045d5780636352211e1461049a57806370a08231146104d7576101b7565b806326ff40de1161015957806332cb6b0c1161013357806332cb6b0c146103a157806342842e0e146103cc578063438b6300146103f557806344c485a314610432576101b7565b806326ff40de146102fc5780632bb2c9cb146103275780632f745c5914610364576101b7565b8063095ea7b311610195578063095ea7b3146102615780631249c58b1461028a57806318160ddd146102a857806323b872dd146102d3576101b7565b806301ffc9a7146101bc57806306fdde03146101f9578063081812fc14610224575b600080fd5b3480156101c857600080fd5b506101e360048036038101906101de9190612d69565b61071b565b6040516101f09190612db1565b60405180910390f35b34801561020557600080fd5b5061020e610795565b60405161021b9190612e65565b60405180910390f35b34801561023057600080fd5b5061024b60048036038101906102469190612ebd565b610827565b6040516102589190612f2b565b60405180910390f35b34801561026d57600080fd5b5061028860048036038101906102839190612f72565b61086d565b005b610292610984565b60405161029f9190612fc1565b60405180910390f35b3480156102b457600080fd5b506102bd610bc3565b6040516102ca9190612fc1565b60405180910390f35b3480156102df57600080fd5b506102fa60048036038101906102f59190612fdc565b610bdf565b005b34801561030857600080fd5b50610311610c3f565b60405161031e9190612fc1565b60405180910390f35b34801561033357600080fd5b5061034e60048036038101906103499190612ebd565b610c4a565b60405161035b9190612e65565b60405180910390f35b34801561037057600080fd5b5061038b60048036038101906103869190612f72565b610cac565b6040516103989190612fc1565b60405180910390f35b3480156103ad57600080fd5b506103b6610d51565b6040516103c3919061304c565b60405180910390f35b3480156103d857600080fd5b506103f360048036038101906103ee9190612fdc565b610d65565b005b34801561040157600080fd5b5061041c60048036038101906104179190613067565b610d85565b6040516104299190613152565b60405180910390f35b34801561043e57600080fd5b50610447610e33565b6040516104549190612fc1565b60405180910390f35b34801561046957600080fd5b50610484600480360381019061047f9190612ebd565b610e3e565b6040516104919190612fc1565b60405180910390f35b3480156104a657600080fd5b506104c160048036038101906104bc9190612ebd565b610eaf565b6040516104ce9190612f2b565b60405180910390f35b3480156104e357600080fd5b506104fe60048036038101906104f99190613067565b610f60565b60405161050b9190612fc1565b60405180910390f35b34801561052057600080fd5b50610529611017565b005b34801561053757600080fd5b50610552600480360381019061054d9190612ebd565b61102b565b60405161055f9190612db1565b60405180910390f35b34801561057457600080fd5b5061057d61104b565b60405161058a9190612f2b565b60405180910390f35b34801561059f57600080fd5b506105a8611075565b6040516105b59190612e65565b60405180910390f35b3480156105ca57600080fd5b506105e560048036038101906105e091906131a0565b611107565b005b3480156105f357600080fd5b5061060e60048036038101906106099190613315565b61111d565b005b34801561061c57600080fd5b5061063760048036038101906106329190612ebd565b61117f565b6040516106449190612e65565b60405180910390f35b34801561065957600080fd5b50610674600480360381019061066f9190612ebd565b6113dc565b60405161068191906133d3565b60405180910390f35b34801561069657600080fd5b5061069f6113fc565b6040516106ac9190612e65565b60405180910390f35b3480156106c157600080fd5b506106dc60048036038101906106d791906133ee565b61146d565b6040516106e99190612db1565b60405180910390f35b3480156106fe57600080fd5b5061071960048036038101906107149190613067565b611501565b005b60007f780e9d63000000000000000000000000000000000000000000000000000000007bffffffffffffffffffffffffffffffffffffffffffffffffffffffff1916827bffffffffffffffffffffffffffffffffffffffffffffffffffffffff1916148061078e575061078d82611584565b5b9050919050565b6060600080546107a49061345d565b80601f01602080910402602001604051908101604052809291908181526020018280546107d09061345d565b801561081d5780601f106107f25761010080835404028352916020019161081d565b820191906000526020600020905b81548152906001019060200180831161080057829003601f168201915b5050505050905090565b600061083282611666565b6004600083815260200190815260200160002060009054906101000a900473ffffffffffffffffffffffffffffffffffffffff169050919050565b600061087882610eaf565b90508073ffffffffffffffffffffffffffffffffffffffff168373ffffffffffffffffffffffffffffffffffffffff16036108e8576040517f08c379a00000000000000000000000000000000000000000000000000000000081526004016108df90613500565b60405180910390fd5b8073ffffffffffffffffffffffffffffffffffffffff166109076116b1565b73ffffffffffffffffffffffffffffffffffffffff1614806109365750610935816109306116b1565b61146d565b5b610975576040517f08c379a000000000000000000000000000000000000000000000000000000000815260040161096c90613592565b60405180910390fd5b61097f83836116b9565b505050565b6000600d60149054906101000a900461ffff1661ffff16600c60149054906101000a900461ffff1661ffff16106109f0576040517f08c379a00000000000000000000000000000000000000000000000000000000081526004016109e7906135fe565b60405180910390fd5b6010544210610a34576040517f08c379a0000000000000000000000000000000000000000000000000000000008152600401610a2b9061366a565b60405180910390fd5b3466470de4df8200001480610a4f575034662386f26fc10000145b610a8e576040517f08c379a0000000000000000000000000000000000000000000000000000000008152600401610a85906136d6565b60405180910390fd5b610a98600b611772565b6000610aa4600b611788565b9050610ab03382611796565b66470de4df8200003403610aeb576001600e600083815260200190815260200160002060006101000a81548160ff0219169083151502179055505b600c601481819054906101000a900461ffff1680929190610b0b90613725565b91906101000a81548161ffff021916908361ffff16021790555050600d60009054906101000a900473ffffffffffffffffffffffffffffffffffffffff1673ffffffffffffffffffffffffffffffffffffffff166108fc349081150290604051600060405180830381858888f19350505050158015610b8e573d6000803e3d6000fd5b50610bbc600c60009054906101000a900473ffffffffffffffffffffffffffffffffffffffff166001611107565b8091505090565b6000600c60149054906101000a900461ffff1661ffff16905090565b610bf0610bea6116b1565b826117b4565b610c2f576040517f08c379a0000000000000000000000000000000000000000000000000000000008152600401610c26906137c1565b60405180910390fd5b610c3a838383611849565b505050565b662386f26fc1000081565b6060610c86610c5883611aaf565b610c6184611b7e565b604051602001610c72929190613a7d565b604051602081830303815290604052611c3d565b604051602001610c969190613b0e565b6040516020818303038152906040529050919050565b6000610cb783610f60565b8210610cf8576040517f08c379a0000000000000000000000000000000000000000000000000000000008152600401610cef90613ba2565b60405180910390fd5b600660008473ffffffffffffffffffffffffffffffffffffffff1673ffffffffffffffffffffffffffffffffffffffff168152602001908152602001600020600083815260200190815260200160002054905092915050565b600d60149054906101000a900461ffff1681565b610d808383836040518060200160405280600081525061111d565b505050565b60606000610d9283610f60565b905060008167ffffffffffffffff811115610db057610daf6131ea565b5b604051908082528060200260200182016040528015610dde5781602001602082028036833780820191505090505b50905060005b82811015610e2857610df68582610cac565b828281518110610e0957610e08613bc2565b5b6020026020010181815250508080610e2090613bf1565b915050610de4565b508092505050919050565b66470de4df82000081565b6000610e48611db5565b8210610e89576040517f08c379a0000000000000000000000000000000000000000000000000000000008152600401610e8090613cab565b60405180910390fd5b60088281548110610e9d57610e9c613bc2565b5b90600052602060002001549050919050565b6000806002600084815260200190815260200160002060009054906101000a900473ffffffffffffffffffffffffffffffffffffffff169050600073ffffffffffffffffffffffffffffffffffffffff168173ffffffffffffffffffffffffffffffffffffffff1603610f57576040517f08c379a0000000000000000000000000000000000000000000000000000000008152600401610f4e90613d17565b60405180910390fd5b80915050919050565b60008073ffffffffffffffffffffffffffffffffffffffff168273ffffffffffffffffffffffffffffffffffffffff1603610fd0576040517f08c379a0000000000000000000000000000000000000000000000000000000008152600401610fc790613da9565b60405180910390fd5b600360008373ffffffffffffffffffffffffffffffffffffffff1673ffffffffffffffffffffffffffffffffffffffff168152602001908152602001600020549050919050565b61101f611dc2565b6110296000611e40565b565b600e6020528060005260406000206000915054906101000a900460ff1681565b6000600a60009054906101000a900473ffffffffffffffffffffffffffffffffffffffff16905090565b6060600180546110849061345d565b80601f01602080910402602001604051908101604052809291908181526020018280546110b09061345d565b80156110fd5780601f106110d2576101008083540402835291602001916110fd565b820191906000526020600020905b8154815290600101906020018083116110e057829003601f168201915b5050505050905090565b6111196111126116b1565b8383611f06565b5050565b61112e6111286116b1565b836117b4565b61116d576040517f08c379a0000000000000000000000000000000000000000000000000000000008152600401611164906137c1565b60405180910390fd5b61117984848484612072565b50505050565b606061118a826120ce565b6111c9576040517f08c379a00000000000000000000000000000000000000000000000000000000081526004016111c090613e15565b60405180910390fd5b60006111d48361213a565b6040516020016111e49190613e81565b60405160208183030381529060405290506000600e600085815260200190815260200160002060009054906101000a900460ff16611257576040518060400160405280601181526020017f47656e6572616c2041646d697373696f6e00000000000000000000000000000081525061128e565b6040518060400160405280600381526020017f56495000000000000000000000000000000000000000000000000000000000008152505b60405160200161129e9190613f15565b604051602081830303815290604052905060008282600e600088815260200190815260200160002060009054906101000a900460ff16611313576040518060400160405280600281526020017f474100000000000000000000000000000000000000000000000000000000000081525061134a565b6040518060400160405280600381526020017f56495000000000000000000000000000000000000000000000000000000000008152505b61137c60146113588a610eaf565b73ffffffffffffffffffffffffffffffffffffffff1661229a90919063ffffffff16565b61138589610c4a565b6040516020016113999594939291906141bd565b60405160208183030381529060405290506113b381611c3d565b6040516020016113c391906142b7565b6040516020818303038152906040529350505050919050565b600f6020528060005260406000206000915054906101000a900460e81b81565b6060600060405160200161140f90614516565b6040516020818303038152906040529050611448816040516020016114349190614588565b604051602081830303815290604052611c3d565b60405160200161145891906142b7565b60405160208183030381529060405291505090565b6000600560008473ffffffffffffffffffffffffffffffffffffffff1673ffffffffffffffffffffffffffffffffffffffff16815260200190815260200160002060008373ffffffffffffffffffffffffffffffffffffffff1673ffffffffffffffffffffffffffffffffffffffff16815260200190815260200160002060009054906101000a900460ff16905092915050565b611509611dc2565b600073ffffffffffffffffffffffffffffffffffffffff168173ffffffffffffffffffffffffffffffffffffffff1603611578576040517f08c379a000000000000000000000000000000000000000000000000000000000815260040161156f90614611565b60405180910390fd5b61158181611e40565b50565b60007f80ac58cd000000000000000000000000000000000000000000000000000000007bffffffffffffffffffffffffffffffffffffffffffffffffffffffff1916827bffffffffffffffffffffffffffffffffffffffffffffffffffffffff1916148061164f57507f5b5e139f000000000000000000000000000000000000000000000000000000007bffffffffffffffffffffffffffffffffffffffffffffffffffffffff1916827bffffffffffffffffffffffffffffffffffffffffffffffffffffffff1916145b8061165f575061165e82612493565b5b9050919050565b61166f816120ce565b6116ae576040517f08c379a00000000000000000000000000000000000000000000000000000000081526004016116a590613d17565b60405180910390fd5b50565b600033905090565b816004600083815260200190815260200160002060006101000a81548173ffffffffffffffffffffffffffffffffffffffff021916908373ffffffffffffffffffffffffffffffffffffffff160217905550808273ffffffffffffffffffffffffffffffffffffffff1661172c83610eaf565b73ffffffffffffffffffffffffffffffffffffffff167f8c5be1e5ebec7d5bd14f71427d1e84f3dd0314c0f7b2291e5b200ac8c7c3b92560405160405180910390a45050565b6001816000016000828254019250508190555050565b600081600001549050919050565b6117b08282604051806020016040528060008152506124fd565b5050565b6000806117c083610eaf565b90508073ffffffffffffffffffffffffffffffffffffffff168473ffffffffffffffffffffffffffffffffffffffff1614806118025750611801818561146d565b5b8061184057508373ffffffffffffffffffffffffffffffffffffffff1661182884610827565b73ffffffffffffffffffffffffffffffffffffffff16145b91505092915050565b8273ffffffffffffffffffffffffffffffffffffffff1661186982610eaf565b73ffffffffffffffffffffffffffffffffffffffff16146118bf576040517f08c379a00000000000000000000000000000000000000000000000000000000081526004016118b6906146a3565b60405180910390fd5b600073ffffffffffffffffffffffffffffffffffffffff168273ffffffffffffffffffffffffffffffffffffffff160361192e576040517f08c379a000000000000000000000000000000000000000000000000000000000815260040161192590614735565b60405180910390fd5b611939838383612558565b6119446000826116b9565b6001600360008573ffffffffffffffffffffffffffffffffffffffff1673ffffffffffffffffffffffffffffffffffffffff16815260200190815260200160002060008282546119949190614755565b925050819055506001600360008473ffffffffffffffffffffffffffffffffffffffff1673ffffffffffffffffffffffffffffffffffffffff16815260200190815260200160002060008282546119eb9190614789565b92505081905550816002600083815260200190815260200160002060006101000a81548173ffffffffffffffffffffffffffffffffffffffff021916908373ffffffffffffffffffffffffffffffffffffffff160217905550808273ffffffffffffffffffffffffffffffffffffffff168473ffffffffffffffffffffffffffffffffffffffff167fddf252ad1be2c89b69c2b068fc378daa952ba7f163c4a11628f55a4df523b3ef60405160405180910390a4611aaa83838361266a565b505050565b60606000600e600084815260200190815260200160002060009054906101000a900460ff16611b13576040518060400160405280601181526020017f47656e6572616c2041646d697373696f6e000000000000000000000000000000815250611b4a565b6040518060400160405280600381526020017f56495000000000000000000000000000000000000000000000000000000000008152505b9050611b558361213a565b81604051602001611b679291906149a7565b604051602081830303815290604052915050919050565b6060600e600083815260200190815260200160002060009054906101000a900460ff16611be0576040518060400160405280600281526020017f7337000000000000000000000000000000000000000000000000000000000000815250611c17565b6040518060400160405280600281526020017f73360000000000000000000000000000000000000000000000000000000000008152505b604051602001611c27919061518a565b6040516020818303038152906040529050919050565b60606000825103611c5f57604051806020016040528060008152509050611db0565b60006040518060600160405280604081526020016156156040913990506000600360028551611c8e9190614789565b611c9891906151e6565b6004611ca49190615217565b90506000602082611cb59190614789565b67ffffffffffffffff811115611cce57611ccd6131ea565b5b6040519080825280601f01601f191660200182016040528015611d005781602001600182028036833780820191505090505b509050818152600183018586518101602084015b81831015611d6f576003830192508251603f8160121c168501518253600182019150603f81600c1c168501518253600182019150603f8160061c168501518253600182019150603f8116850151825360018201915050611d14565b600389510660018114611d895760028114611d9957611da4565b613d3d60f01b6002830352611da4565b603d60f81b60018303525b50505050508093505050505b919050565b6000600880549050905090565b611dca6116b1565b73ffffffffffffffffffffffffffffffffffffffff16611de861104b565b73ffffffffffffffffffffffffffffffffffffffff1614611e3e576040517f08c379a0000000000000000000000000000000000000000000000000000000008152600401611e35906152bd565b60405180910390fd5b565b6000600a60009054906101000a900473ffffffffffffffffffffffffffffffffffffffff16905081600a60006101000a81548173ffffffffffffffffffffffffffffffffffffffff021916908373ffffffffffffffffffffffffffffffffffffffff1602179055508173ffffffffffffffffffffffffffffffffffffffff168173ffffffffffffffffffffffffffffffffffffffff167f8be0079c531659141344cd1fd0a4f28419497f9722a3daafe3b4186f6b6457e060405160405180910390a35050565b8173ffffffffffffffffffffffffffffffffffffffff168373ffffffffffffffffffffffffffffffffffffffff1603611f74576040517f08c379a0000000000000000000000000000000000000000000000000000000008152600401611f6b90615329565b60405180910390fd5b80600560008573ffffffffffffffffffffffffffffffffffffffff1673ffffffffffffffffffffffffffffffffffffffff16815260200190815260200160002060008473ffffffffffffffffffffffffffffffffffffffff1673ffffffffffffffffffffffffffffffffffffffff16815260200190815260200160002060006101000a81548160ff0219169083151502179055508173ffffffffffffffffffffffffffffffffffffffff168373ffffffffffffffffffffffffffffffffffffffff167f17307eab39ab6107e8899845ad3d59bd9653f200f220920489ca2b5937696c31836040516120659190612db1565b60405180910390a3505050565b61207d848484611849565b6120898484848461266f565b6120c8576040517f08c379a00000000000000000000000000000000000000000000000000000000081526004016120bf906153bb565b60405180910390fd5b50505050565b60008073ffffffffffffffffffffffffffffffffffffffff166002600084815260200190815260200160002060009054906101000a900473ffffffffffffffffffffffffffffffffffffffff1673ffffffffffffffffffffffffffffffffffffffff1614159050919050565b606060008203612181576040518060400160405280600181526020017f30000000000000000000000000000000000000000000000000000000000000008152509050612295565b600082905060005b600082146121b357808061219c90613bf1565b915050600a826121ac91906151e6565b9150612189565b60008167ffffffffffffffff8111156121cf576121ce6131ea565b5b6040519080825280601f01601f1916602001820160405280156122015781602001600182028036833780820191505090505b5090505b6000851461228e5760018261221a9190614755565b9150600a8561222991906153db565b60306122359190614789565b60f81b81838151811061224b5761224a613bc2565b5b60200101907effffffffffffffffffffffffffffffffffffffffffffffffffffffffffffff1916908160001a905350600a8561228791906151e6565b9450612205565b8093505050505b919050565b6060600060028360026122ad9190615217565b6122b79190614789565b67ffffffffffffffff8111156122d0576122cf6131ea565b5b6040519080825280601f01601f1916602001820160405280156123025781602001600182028036833780820191505090505b5090507f30000000000000000000000000000000000000000000000000000000000000008160008151811061233a57612339613bc2565b5b60200101907effffffffffffffffffffffffffffffffffffffffffffffffffffffffffffff1916908160001a9053507f78000000000000000000000000000000000000000000000000000000000000008160018151811061239e5761239d613bc2565b5b60200101907effffffffffffffffffffffffffffffffffffffffffffffffffffffffffffff1916908160001a905350600060018460026123de9190615217565b6123e89190614789565b90505b6001811115612488577f3031323334353637383961626364656600000000000000000000000000000000600f86166010811061242a57612429613bc2565b5b1a60f81b82828151811061244157612440613bc2565b5b60200101907effffffffffffffffffffffffffffffffffffffffffffffffffffffffffffff1916908160001a905350600485901c9450806124819061540c565b90506123eb565b508091505092915050565b60007f01ffc9a7000000000000000000000000000000000000000000000000000000007bffffffffffffffffffffffffffffffffffffffffffffffffffffffff1916827bffffffffffffffffffffffffffffffffffffffffffffffffffffffff1916149050919050565b61250783836127f6565b612514600084848461266f565b612553576040517f08c379a000000000000000000000000000000000000000000000000000000000815260040161254a906153bb565b60405180910390fd5b505050565b6125638383836129cf565b600073ffffffffffffffffffffffffffffffffffffffff168373ffffffffffffffffffffffffffffffffffffffff16036125a5576125a0816129d4565b6125e4565b8173ffffffffffffffffffffffffffffffffffffffff168373ffffffffffffffffffffffffffffffffffffffff16146125e3576125e28382612a1d565b5b5b600073ffffffffffffffffffffffffffffffffffffffff168273ffffffffffffffffffffffffffffffffffffffff16036126265761262181612b8a565b612665565b8273ffffffffffffffffffffffffffffffffffffffff168273ffffffffffffffffffffffffffffffffffffffff1614612664576126638282612c5b565b5b5b505050565b505050565b60006126908473ffffffffffffffffffffffffffffffffffffffff16612cda565b156127e9578373ffffffffffffffffffffffffffffffffffffffff1663150b7a026126b96116b1565b8786866040518563ffffffff1660e01b81526004016126db949392919061547f565b6020604051808303816000875af192505050801561271757506040513d601f19601f8201168201806040525081019061271491906154e0565b60015b612799573d8060008114612747576040519150601f19603f3d011682016040523d82523d6000602084013e61274c565b606091505b506000815103612791576040517f08c379a0000000000000000000000000000000000000000000000000000000008152600401612788906153bb565b60405180910390fd5b805181602001fd5b63150b7a0260e01b7bffffffffffffffffffffffffffffffffffffffffffffffffffffffff1916817bffffffffffffffffffffffffffffffffffffffffffffffffffffffff1916149150506127ee565b600190505b949350505050565b600073ffffffffffffffffffffffffffffffffffffffff168273ffffffffffffffffffffffffffffffffffffffff1603612865576040517f08c379a000000000000000000000000000000000000000000000000000000000815260040161285c90615559565b60405180910390fd5b61286e816120ce565b156128ae576040517f08c379a00000000000000000000000000000000000000000000000000000000081526004016128a5906155c5565b60405180910390fd5b6128ba60008383612558565b6001600360008473ffffffffffffffffffffffffffffffffffffffff1673ffffffffffffffffffffffffffffffffffffffff168152602001908152602001600020600082825461290a9190614789565b92505081905550816002600083815260200190815260200160002060006101000a81548173ffffffffffffffffffffffffffffffffffffffff021916908373ffffffffffffffffffffffffffffffffffffffff160217905550808273ffffffffffffffffffffffffffffffffffffffff16600073ffffffffffffffffffffffffffffffffffffffff167fddf252ad1be2c89b69c2b068fc378daa952ba7f163c4a11628f55a4df523b3ef60405160405180910390a46129cb6000838361266a565b5050565b505050565b6008805490506009600083815260200190815260200160002081905550600881908060018154018082558091505060019003906000526020600020016000909190919091505550565b60006001612a2a84610f60565b612a349190614755565b9050600060076000848152602001908152602001600020549050818114612b19576000600660008673ffffffffffffffffffffffffffffffffffffffff1673ffffffffffffffffffffffffffffffffffffffff168152602001908152602001600020600084815260200190815260200160002054905080600660008773ffffffffffffffffffffffffffffffffffffffff1673ffffffffffffffffffffffffffffffffffffffff168152602001908152602001600020600084815260200190815260200160002081905550816007600083815260200190815260200160002081905550505b6007600084815260200190815260200160002060009055600660008573ffffffffffffffffffffffffffffffffffffffff1673ffffffffffffffffffffffffffffffffffffffff16815260200190815260200160002060008381526020019081526020016000206000905550505050565b60006001600880549050612b9e9190614755565b9050600060096000848152602001908152602001600020549050600060088381548110612bce57612bcd613bc2565b5b906000526020600020015490508060088381548110612bf057612bef613bc2565b5b906000526020600020018190555081600960008381526020019081526020016000208190555060096000858152602001908152602001600020600090556008805480612c3f57612c3e6155e5565b5b6001900381819060005260206000200160009055905550505050565b6000612c6683610f60565b905081600660008573ffffffffffffffffffffffffffffffffffffffff1673ffffffffffffffffffffffffffffffffffffffff168152602001908152602001600020600083815260200190815260200160002081905550806007600084815260200190815260200160002081905550505050565b6000808273ffffffffffffffffffffffffffffffffffffffff163b119050919050565b6000604051905090565b600080fd5b600080fd5b60007fffffffff0000000000000000000000000000000000000000000000000000000082169050919050565b612d4681612d11565b8114612d5157600080fd5b50565b600081359050612d6381612d3d565b92915050565b600060208284031215612d7f57612d7e612d07565b5b6000612d8d84828501612d54565b91505092915050565b60008115159050919050565b612dab81612d96565b82525050565b6000602082019050612dc66000830184612da2565b92915050565b600081519050919050565b600082825260208201905092915050565b60005b83811015612e06578082015181840152602081019050612deb565b83811115612e15576000848401525b50505050565b6000601f19601f8301169050919050565b6000612e3782612dcc565b612e418185612dd7565b9350612e51818560208601612de8565b612e5a81612e1b565b840191505092915050565b60006020820190508181036000830152612e7f8184612e2c565b905092915050565b6000819050919050565b612e9a81612e87565b8114612ea557600080fd5b50565b600081359050612eb781612e91565b92915050565b600060208284031215612ed357612ed2612d07565b5b6000612ee184828501612ea8565b91505092915050565b600073ffffffffffffffffffffffffffffffffffffffff82169050919050565b6000612f1582612eea565b9050919050565b612f2581612f0a565b82525050565b6000602082019050612f406000830184612f1c565b92915050565b612f4f81612f0a565b8114612f5a57600080fd5b50565b600081359050612f6c81612f46565b92915050565b60008060408385031215612f8957612f88612d07565b5b6000612f9785828601612f5d565b9250506020612fa885828601612ea8565b9150509250929050565b612fbb81612e87565b82525050565b6000602082019050612fd66000830184612fb2565b92915050565b600080600060608486031215612ff557612ff4612d07565b5b600061300386828701612f5d565b935050602061301486828701612f5d565b925050604061302586828701612ea8565b9150509250925092565b600061ffff82169050919050565b6130468161302f565b82525050565b6000602082019050613061600083018461303d565b92915050565b60006020828403121561307d5761307c612d07565b5b600061308b84828501612f5d565b91505092915050565b600081519050919050565b600082825260208201905092915050565b6000819050602082019050919050565b6130c981612e87565b82525050565b60006130db83836130c0565b60208301905092915050565b6000602082019050919050565b60006130ff82613094565b613109818561309f565b9350613114836130b0565b8060005b8381101561314557815161312c88826130cf565b9750613137836130e7565b925050600181019050613118565b5085935050505092915050565b6000602082019050818103600083015261316c81846130f4565b905092915050565b61317d81612d96565b811461318857600080fd5b50565b60008135905061319a81613174565b92915050565b600080604083850312156131b7576131b6612d07565b5b60006131c585828601612f5d565b92505060206131d68582860161318b565b9150509250929050565b600080fd5b600080fd5b7f4e487b7100000000000000000000000000000000000000000000000000000000600052604160045260246000fd5b61322282612e1b565b810181811067ffffffffffffffff82111715613241576132406131ea565b5b80604052505050565b6000613254612cfd565b90506132608282613219565b919050565b600067ffffffffffffffff8211156132805761327f6131ea565b5b61328982612e1b565b9050602081019050919050565b82818337600083830152505050565b60006132b86132b384613265565b61324a565b9050828152602081018484840111156132d4576132d36131e5565b5b6132df848285613296565b509392505050565b600082601f8301126132fc576132fb6131e0565b5b813561330c8482602086016132a5565b91505092915050565b6000806000806080858703121561332f5761332e612d07565b5b600061333d87828801612f5d565b945050602061334e87828801612f5d565b935050604061335f87828801612ea8565b925050606085013567ffffffffffffffff8111156133805761337f612d0c565b5b61338c878288016132e7565b91505092959194509250565b60007fffffff000000000000000000000000000000000000000000000000000000000082169050919050565b6133cd81613398565b82525050565b60006020820190506133e860008301846133c4565b92915050565b6000806040838503121561340557613404612d07565b5b600061341385828601612f5d565b925050602061342485828601612f5d565b9150509250929050565b7f4e487b7100000000000000000000000000000000000000000000000000000000600052602260045260246000fd5b6000600282049050600182168061347557607f821691505b6020821081036134885761348761342e565b5b50919050565b7f4552433732313a20617070726f76616c20746f2063757272656e74206f776e6560008201527f7200000000000000000000000000000000000000000000000000000000000000602082015250565b60006134ea602183612dd7565b91506134f58261348e565b604082019050919050565b60006020820190508181036000830152613519816134dd565b9050919050565b7f4552433732313a20617070726f76652063616c6c6572206973206e6f7420746f60008201527f6b656e206f776e6572206e6f7220617070726f76656420666f7220616c6c0000602082015250565b600061357c603e83612dd7565b915061358782613520565b604082019050919050565b600060208201905081810360008301526135ab8161356f565b9050919050565b7f416c6c207469636b6574732068617665206265656e206d696e7465642e000000600082015250565b60006135e8601d83612dd7565b91506135f3826135b2565b602082019050919050565b60006020820190508181036000830152613617816135db565b9050919050565b7f4d696e74696e6720706572696f642068617320657870697265642e0000000000600082015250565b6000613654601b83612dd7565b915061365f8261361e565b602082019050919050565b6000602082019050818103600083015261368381613647565b9050919050565b7f45746865722076616c75652073656e74206973206e6f7420636f72726563742e600082015250565b60006136c0602083612dd7565b91506136cb8261368a565b602082019050919050565b600060208201905081810360008301526136ef816136b3565b9050919050565b7f4e487b7100000000000000000000000000000000000000000000000000000000600052601160045260246000fd5b60006137308261302f565b915061ffff8203613744576137436136f6565b5b600182019050919050565b7f4552433732313a2063616c6c6572206973206e6f7420746f6b656e206f776e6560008201527f72206e6f7220617070726f766564000000000000000000000000000000000000602082015250565b60006137ab602e83612dd7565b91506137b68261374f565b604082019050919050565b600060208201905081810360008301526137da8161379e565b9050919050565b600081905092915050565b7f3c737667207072657365727665417370656374526174696f3d22784d696e594d60008201527f696e206d656574222076696577426f783d22302030203330302033303022207860208201527f6d6c6e733d22687474703a2f2f7777772e77332e6f72672f323030302f73766760408201527f22207374796c653d2266696c6c2d72756c653a6576656e6f64643b636c69702d60608201527f72756c653a6576656e6f64643b757365722d73656c6563743a206e6f6e653b2260808201527f3e0000000000000000000000000000000000000000000000000000000000000060a082015250565b60006138e060a1836137e1565b91506138eb826137ec565b60a182019050919050565b600061390182612dcc565b61390b81856137e1565b935061391b818560208601612de8565b80840191505092915050565b7f3c7374796c653e2e73317b666f6e742d66616d696c793a2242616c6f6f44613260008201527f2d4578747261426f6c64223b7d202e73347b666f6e742d66616d696c793a224260208201527f616c6f6f4461322d526567756c6172223b7d202e73337b666f6e742d73697a6560408201527f3a31303870783b7d202e73357b66696c6c3a234646463b7d202e73327b66696c60608201527f6c3a234646393230303b7d202e73367b66696c6c3a233343334333433b7d202e60808201527f73377b66696c6c3a233533323737353b7d3c2f7374796c653e0000000000000060a082015250565b6000613a1b60b9836137e1565b9150613a2682613927565b60b982019050919050565b7f3c2f7376673e0000000000000000000000000000000000000000000000000000600082015250565b6000613a676006836137e1565b9150613a7282613a31565b600682019050919050565b6000613a88826138d3565b9150613a9482856138f6565b9150613aa082846138f6565b9150613aab82613a0e565b9150613ab682613a5a565b91508190509392505050565b7f646174613a696d6167652f7376672b786d6c3b6261736536342c000000000000600082015250565b6000613af8601a836137e1565b9150613b0382613ac2565b601a82019050919050565b6000613b1982613aeb565b9150613b2582846138f6565b915081905092915050565b7f455243373231456e756d657261626c653a206f776e657220696e646578206f7560008201527f74206f6620626f756e6473000000000000000000000000000000000000000000602082015250565b6000613b8c602b83612dd7565b9150613b9782613b30565b604082019050919050565b60006020820190508181036000830152613bbb81613b7f565b9050919050565b7f4e487b7100000000000000000000000000000000000000000000000000000000600052603260045260246000fd5b6000613bfc82612e87565b91507fffffffffffffffffffffffffffffffffffffffffffffffffffffffffffffffff8203613c2e57613c2d6136f6565b5b600182019050919050565b7f455243373231456e756d657261626c653a20676c6f62616c20696e646578206f60008201527f7574206f6620626f756e64730000000000000000000000000000000000000000602082015250565b6000613c95602c83612dd7565b9150613ca082613c39565b604082019050919050565b60006020820190508181036000830152613cc481613c88565b9050919050565b7f4552433732313a20696e76616c696420746f6b656e2049440000000000000000600082015250565b6000613d01601883612dd7565b9150613d0c82613ccb565b602082019050919050565b60006020820190508181036000830152613d3081613cf4565b9050919050565b7f4552433732313a2061646472657373207a65726f206973206e6f74206120766160008201527f6c6964206f776e65720000000000000000000000000000000000000000000000602082015250565b6000613d93602983612dd7565b9150613d9e82613d37565b604082019050919050565b60006020820190508181036000830152613dc281613d86565b9050919050565b7f6e6f742065786973740000000000000000000000000000000000000000000000600082015250565b6000613dff600983612dd7565b9150613e0a82613dc9565b602082019050919050565b60006020820190508181036000830152613e2e81613df2565b9050919050565b7f5469636b65742023000000000000000000000000000000000000000000000000600082015250565b6000613e6b6008836137e1565b9150613e7682613e35565b600882019050919050565b6000613e8c82613e5e565b9150613e9882846138f6565b915081905092915050565b7f2061636365737320746f204554484576656e745469636b657473206f6e20444160008201527f54455f4f465f4556454e542e0000000000000000000000000000000000000000602082015250565b6000613eff602c836137e1565b9150613f0a82613ea3565b602c82019050919050565b6000613f2182846138f6565b9150613f2c82613ef2565b915081905092915050565b7f7b226e616d65223a220000000000000000000000000000000000000000000000600082015250565b6000613f6d6009836137e1565b9150613f7882613f37565b600982019050919050565b7f222c226465736372697074696f6e223a22000000000000000000000000000000600082015250565b6000613fb96011836137e1565b9150613fc482613f83565b601182019050919050565b7f222c000000000000000000000000000000000000000000000000000000000000600082015250565b60006140056002836137e1565b915061401082613fcf565b600282019050919050565b7f2261747472696275746573223a5b7b2274726169745f74797065223a2254696360008201527f6b65742054797065222c202276616c7565223a22000000000000000000000000602082015250565b60006140776034836137e1565b91506140828261401b565b603482019050919050565b7f227d5d2c00000000000000000000000000000000000000000000000000000000600082015250565b60006140c36004836137e1565b91506140ce8261408d565b600482019050919050565b7f226f776e6572223a220000000000000000000000000000000000000000000000600082015250565b600061410f6009836137e1565b915061411a826140d9565b600982019050919050565b7f22696d616765223a220000000000000000000000000000000000000000000000600082015250565b600061415b6009836137e1565b915061416682614125565b600982019050919050565b7f227d000000000000000000000000000000000000000000000000000000000000600082015250565b60006141a76002836137e1565b91506141b282614171565b600282019050919050565b60006141c882613f60565b91506141d482886138f6565b91506141df82613fac565b91506141eb82876138f6565b91506141f682613ff8565b91506142018261406a565b915061420d82866138f6565b9150614218826140b6565b915061422382614102565b915061422f82856138f6565b915061423a82613ff8565b91506142458261414e565b915061425182846138f6565b915061425c8261419a565b91508190509695505050505050565b7f646174613a6170706c69636174696f6e2f6a736f6e3b6261736536342c000000600082015250565b60006142a1601d836137e1565b91506142ac8261426b565b601d82019050919050565b60006142c282614294565b91506142ce82846138f6565b915081905092915050565b7f7b226e616d65223a224554484576656e745469636b657473222c000000000000600082015250565b600061430f601a836137e1565b915061431a826142d9565b601a82019050919050565b7f226465736372697074696f6e223a224554484576656e745469636b657473206960008201527f7320746865206d6f7374207072656d69657220666f78206576656e7420696e2060208201527f74686520736f6c61722073797374656d207468697320796561722e204a6f696e60408201527f20667269656e64732066726f6d20616c6c206f7665722074686520776f726c6460608201527f207468697320446563656d6265722061732074686520736b756c6b206465736360808201527f656e64206f6e20746865205765623320737061636520616e642064696720746860a08201527f656972207061777320696e746f2065766572797468696e67204574686572657560c08201527f6d2e205374617920666f78792c20796f7572204e46542070757263686173652060e08201527f697320796f7572207469636b657420746f20746865206576656e7421222c000061010082015250565b600061448d61011e836137e1565b915061449882614325565b61011e82019050919050565b7f2265787465726e616c5f6c696e6b223a202268747470733a2f2f6d6574616d6160008201527f736b2e696f227d00000000000000000000000000000000000000000000000000602082015250565b60006145006027836137e1565b915061450b826144a4565b602782019050919050565b600061452182614302565b915061452c8261447f565b9150614537826144f3565b9150819050919050565b600081519050919050565b600081905092915050565b600061456282614541565b61456c818561454c565b935061457c818560208601612de8565b80840191505092915050565b60006145948284614557565b915081905092915050565b7f4f776e61626c653a206e6577206f776e657220697320746865207a65726f206160008201527f6464726573730000000000000000000000000000000000000000000000000000602082015250565b60006145fb602683612dd7565b91506146068261459f565b604082019050919050565b6000602082019050818103600083015261462a816145ee565b9050919050565b7f4552433732313a207472616e736665722066726f6d20696e636f72726563742060008201527f6f776e6572000000000000000000000000000000000000000000000000000000602082015250565b600061468d602583612dd7565b915061469882614631565b604082019050919050565b600060208201905081810360008301526146bc81614680565b9050919050565b7f4552433732313a207472616e7366657220746f20746865207a65726f2061646460008201527f7265737300000000000000000000000000000000000000000000000000000000602082015250565b600061471f602483612dd7565b915061472a826146c3565b604082019050919050565b6000602082019050818103600083015261474e81614712565b9050919050565b600061476082612e87565b915061476b83612e87565b92508282101561477e5761477d6136f6565b5b828203905092915050565b600061479482612e87565b915061479f83612e87565b9250827fffffffffffffffffffffffffffffffffffffffffffffffffffffffffffffffff038211156147d4576147d36136f6565b5b828201905092915050565b7f3c672069643d22737475623222207472616e73666f726d3d226d61747269782860008201527f302e3438393630312c302c302c302e3438393630312c33362e333631362c333460208201527f2e3536313329223e3c7465787420783d22373870782220793d2234353570782260408201527f20636c6173733d227331207333207335223e2300000000000000000000000000606082015250565b60006148876073836137e1565b9150614892826147df565b607382019050919050565b7f3c2f746578743e3c2f673e000000000000000000000000000000000000000000600082015250565b60006148d3600b836137e1565b91506148de8261489d565b600b82019050919050565b7f3c672069643d22737475623322207472616e73666f726d3d226d61747269782860008201527f302e3136303636372c302c302c302e3136303636372c36362e313531312c323160208201527f322e39313129223e3c7465787420783d22363270782220793d2234313070782260408201527f20636c6173733d227331207333207332223e0000000000000000000000000000606082015250565b60006149916072836137e1565b915061499c826148e9565b607282019050919050565b60006149b28261487a565b91506149be82856138f6565b91506149c9826148c6565b91506149d482614984565b91506149e082846138f6565b91506149eb826148c6565b91508190509392505050565b7f3c672069643d22746f7022207472616e73666f726d3d226d617472697828302e60008201527f39393738342c302c302c312c322e3837373637652d31382c3029223e3c70617460208201527f6820636c6173733d220000000000000000000000000000000000000000000000604082015250565b6000614a796049836137e1565b9150614a84826149f7565b604982019050919050565b7f2220643d224d33302c3230304c32302c3230304332302c3138382e393632203160008201527f312e3033382c31383020302c3138304c302c31352e33363843302c362e38383660208201527f20362e3838362c302031352e3336382c304c3238352e3238312c30433239332e60408201527f3736332c30203330302e3634392c362e383836203330302e3634392c31352e3360608201527f36384c3330302e3634392c3138302e3033334c3330302c313830433238382e3960808201527f36322c313830203238302c3138382e393632203238302c3230304c3237302c3260a08201527f30304c3237302c3139394c3236342e39392c3139394c3236342e39392c32303060c08201527f4c3236302e3938312c3230304c3236302e3938312c3139394c3235352e39373160e08201527f2c3139394c3235352e3937312c3230304c3235312e3936322c3230304c3235316101008201527f2e3936322c3139394c3234362e3935322c3139394c3234362e3935322c3230306101208201527f4c3234322e3934342c3230304c3234322e3934342c3139394c3233372e3933336101408201527f2c3139394c3233372e3933332c3230304c3233332e3932352c3230304c3233336101608201527f2e3932352c3139394c3232382e3931342c3139394c3232382e3931342c3230306101808201527f4c3232342e3930362c3230304c3232342e3930362c3139394c3231392e3839366101a08201527f2c3139394c3231392e3839362c3230304c3231352e3838372c3230304c3231356101c08201527f2e3838372c3139394c3231302e3837372c3139394c3231302e3837372c3230306101e08201527f4c3230362e3336372c3230304c3230362e3336372c3139394c3230312e3335376102008201527f2c3139394c3230312e3335372c3230304c3139372e3334392c3230304c3139376102208201527f2e3334392c3139394c3139322e3333382c3139394c3139322e3333382c3230306102408201527f4c3138382e33332c3230304c3138382e33332c3139394c3138332e3331392c316102608201527f39394c3138332e3331392c3230304c3137392e3331312c3230304c3137392e336102808201527f31312c3139394c3137342e3330312c3139394c3137342e3330312c3230304c316102a08201527f37302e3239322c3230304c3137302e3239322c3139394c3136352e3238322c316102c08201527f39394c3136352e3238322c3230304c3136312e3237332c3230304c3136312e326102e08201527f37332c3139394c3135362e3236332c3139394c3135362e3236332c3230304c316103008201527f35322e3235352c3230304c3135322e3235352c3139394c3134372e3234342c316103208201527f39394c3134372e3234342c3230304c3134332e3233362c3230304c3134332e326103408201527f33362c3139394c3133382e3232352c3139394c3133382e3232352c3230304c316103608201527f33342e3231372c3230304c3133342e3231372c3139394c3132392e3230372c316103808201527f39394c3132392e3230372c3230304c3132352e3139382c3230304c3132352e316103a08201527f39382c3139394c3132302e3138382c3139394c3132302e3138382c3230304c316103c08201527f31362e31382c3230304c3131362e31382c3139394c3131312e3136392c3139396103e08201527f4c3131312e3136392c3230304c3130372e3136312c3230304c3130372e3136316104008201527f2c3139394c3130322e31352c3139394c3130322e31352c3230304c39382e31346104208201527f322c3230304c39382e3134322c3139394c39332e3133322c3139394c39332e316104408201527f33322c3230304c38392e3132332c3230304c38392e3132332c3139394c38342e6104608201527f3131332c3139394c38342e3131332c3230304c38302e3130342c3230304c38306104808201527f2e3130342c3139394c37352e3039342c3139394c37352e3039342c3230304c376104a08201527f312e3038362c3230304c37312e3038362c3139394c36362e3037352c3139394c6104c08201527f36362e3037352c3230304c36322e3036372c3230304c36322e3036372c3139396104e08201527f4c35372e3035362c3139394c35372e3035362c3230304c35332e3034382c32306105008201527f304c35332e3034382c3139394c34382e3033382c3139394c34382e3033382c326105208201527f30304c34342e3032392c3230304c34342e3032392c3139394c33392e3031392c6105408201527f3139394c33392e3031392c3230304c33352e30312c3230304c33352e30312c316105608201527f39394c33302c3139394c33302c3230305a22202f3e3c2f673e0000000000000061058082015250565b6000615173610599836137e1565b915061517e82614a8f565b61059982019050919050565b600061519582614a6c565b91506151a182846138f6565b91506151ac82615165565b915081905092915050565b7f4e487b7100000000000000000000000000000000000000000000000000000000600052601260045260246000fd5b60006151f182612e87565b91506151fc83612e87565b92508261520c5761520b6151b7565b5b828204905092915050565b600061522282612e87565b915061522d83612e87565b9250817fffffffffffffffffffffffffffffffffffffffffffffffffffffffffffffffff0483118215151615615266576152656136f6565b5b828202905092915050565b7f4f776e61626c653a2063616c6c6572206973206e6f7420746865206f776e6572600082015250565b60006152a7602083612dd7565b91506152b282615271565b602082019050919050565b600060208201905081810360008301526152d68161529a565b9050919050565b7f4552433732313a20617070726f766520746f2063616c6c657200000000000000600082015250565b6000615313601983612dd7565b915061531e826152dd565b602082019050919050565b6000602082019050818103600083015261534281615306565b9050919050565b7f4552433732313a207472616e7366657220746f206e6f6e20455243373231526560008201527f63656976657220696d706c656d656e7465720000000000000000000000000000602082015250565b60006153a5603283612dd7565b91506153b082615349565b604082019050919050565b600060208201905081810360008301526153d481615398565b9050919050565b60006153e682612e87565b91506153f183612e87565b925082615401576154006151b7565b5b828206905092915050565b600061541782612e87565b91506000820361542a576154296136f6565b5b600182039050919050565b600082825260208201905092915050565b600061545182614541565b61545b8185615435565b935061546b818560208601612de8565b61547481612e1b565b840191505092915050565b60006080820190506154946000830187612f1c565b6154a16020830186612f1c565b6154ae6040830185612fb2565b81810360608301526154c08184615446565b905095945050505050565b6000815190506154da81612d3d565b92915050565b6000602082840312156154f6576154f5612d07565b5b6000615504848285016154cb565b91505092915050565b7f4552433732313a206d696e7420746f20746865207a65726f2061646472657373600082015250565b6000615543602083612dd7565b915061554e8261550d565b602082019050919050565b6000602082019050818103600083015261557281615536565b9050919050565b7f4552433732313a20746f6b656e20616c7265616479206d696e74656400000000600082015250565b60006155af601c83612dd7565b91506155ba82615579565b602082019050919050565b600060208201905081810360008301526155de816155a2565b9050919050565b7f4e487b7100000000000000000000000000000000000000000000000000000000600052603160045260246000fdfe4142434445464748494a4b4c4d4e4f505152535455565758595a6162636465666768696a6b6c6d6e6f707172737475767778797a303132333435363738392b2fa264697066735822122081809f487a44d852b5544ec43ec389e5748adf45fdb9e6c574489982fe445e0464736f6c634300080d0033",
  "immutableReferences": {},
  "source": "// SPDX-License-Identifier: MIT\npragma solidity ^0.8.4;\n\nimport \"@openzeppelin/contracts/token/ERC721/extensions/ERC721Enumerable.sol\";\nimport \"@openzeppelin/contracts/token/ERC721/extensions/ERC721URIStorage.sol\";\nimport \"@openzeppelin/contracts/utils/Counters.sol\";\nimport \"@openzeppelin/contracts/access/Ownable.sol\";\nimport \"@openzeppelin/contracts/utils/Strings.sol\";\nimport 'base64-sol/base64.sol';\n\nimport './HexStrings.sol';\n\n/* \n  visibility modifiers\n  ------------------------------------------------------\n  public: anyone can call\n  private: only this contract\n  internal: only this contract and inheriting contracts\n  external: only external calls (not this contract)\n*/\n\ncontract ETHEventTickets is ERC721Enumerable, Ownable {\n  using Strings for uint256;\n  using HexStrings for uint160;\n  using Counters for Counters.Counter;\n  Counters.Counter private _tokenIds;\n\n  address marketplaceContract;\n  event NFTMinted(uint256);\n\n  uint16 _myTotalSupply = 0; // max value 65,535\n  address _owner;\n\n  // * size added 0.3KB\n  uint16 public MAX_SUPPLY = 8999; // max value 65,535\n  uint256 public constant vipTicketPrice = 20000000000000000; //0.02 ETH\n  uint256 public constant gaTicketPrice = 10000000000000000; //0.01 ETH\n\n  // mapping (uint256 => bool) public gaTicketHolders;\n  mapping (uint256 => bool) public vipTicketHolders;\n\n  constructor(address _marketplaceContract) ERC721(\"ETHEventTickets\", \"FXC22\") {\n    marketplaceContract = _marketplaceContract;\n    _tokenIds._value = 999;\n    _owner = msg.sender;\n  }\n\n  mapping (uint256 => bytes3) public color;\n  uint256 mintDeadline = block.timestamp + 168 hours;\n\n  function totalSupply() view public override returns(uint256) {\n    return _myTotalSupply; // gas optimization (otherwise totalSupply() when mint)\n  }\n\n  /**\n    * @dev Returns the tokens owned by a given wallet. For use mainly on frontend.\n    * @param _wallet The wallet to get the tokens of. NEEDS ENUMERABLE\n    // * size added 0.3KB\n  */\n  function walletOfOwner(address _wallet) public view returns (uint256[] memory) {\n    uint256 tokenCount = balanceOf(_wallet);\n\n    uint256[] memory tokensId = new uint256[](tokenCount);\n    for (uint256 i; i < tokenCount; i++) {\n      tokensId[i] = tokenOfOwnerByIndex(_wallet, i);\n    }\n    return tokensId;\n  }\n\n  function contractURI() public pure returns (string memory) {\n    // string memory image = Base64.encode(bytes(generateCollectionSvg()));\n\n    bytes memory collectionJsonString = bytes(abi.encodePacked(\n      '{\"name\":\"ETHEventTickets\",',\n      '\"description\":\"ETHEventTickets is the most premier fox event in the solar system this year. Join friends from all over the world this December as the skulk descend on the Web3 space and dig their paws into everything Ethereum. Stay foxy, your NFT purchase is your ticket to the event!\",', \n      // '\"image\":\"data:image/svg+xml;base64,',image,'\",'\n      '\"external_link\": \"https://metamask.io\"}'\n    ));\n\n    return string(\n      abi.encodePacked(\n        'data:application/json;base64,',\n        Base64.encode(bytes(abi.encodePacked(collectionJsonString)))\n      )\n    );\n  }\n\n  // function generateCollectionSvg() internal pure returns (string memory) {\n  //   return string(abi.encodePacked(\n  //     '<svg preserveAspectRatio=\"xMinYMin meet\" viewBox=\"0 0 35 33\" xmlns=\"http://www.w3.org/2000/svg\" style=\"stroke-linejoin:round;stroke-miterlimit:2;\">',\n  //       '<g><path d=\"M10.286,29.139L10.285,29.138L2.499,31.283L0.289,23.679L0.288,23.679L2.677,16.226L2.69,16.222L2.677,16.226L1.098,14.369L1.785,13.874L0.686,12.871L1.524,12.21L0.425,11.372L1.153,10.822L-0,5.211L1.73,0L1.73,0L12.866,4.166L12.866,4.167L22.134,4.167L22.134,4.166L33.27,0L35,5.211L33.847,10.822L34.575,11.372L33.476,12.21L34.314,12.871L33.215,13.874L33.902,14.369L32.323,16.226L32.302,16.22L32.322,16.226L34.725,23.679L32.501,31.283L24.715,29.138L24.715,29.137L24.714,29.137L23.205,30.374L20.129,32.506L14.87,32.506L11.795,30.374L10.286,29.139ZM14.912,29.604L14.582,29.907L14.912,29.604L14.582,29.907L14.912,29.604ZM20.088,29.604L20.774,29.864L20.088,29.604ZM20.088,29.604L20.06,26.869L19.401,26.415L19.402,26.413L19.416,20.255L20.308,21.725L19.416,20.255L19.594,17.752L27.31,17.408L27.31,17.408L19.594,17.751L19.595,17.736L19.415,20.255L19.401,26.415L15.598,26.415L15.598,26.414L15.443,21.757L15.406,17.753L15.443,21.757L13.552,19.333L10.82,20.585L15.443,21.757L15.598,26.415L14.939,26.869L14.911,29.604L20.088,29.604ZM24.716,29.137L28.354,23.679L24.716,29.137ZM20.061,26.868C20.061,26.868 20.947,26.175 21.834,25.482C22.72,24.789 24.07,23.733 24.07,23.733L20.061,26.868ZM7.689,17.408L10.82,20.585L7.69,17.409L7.689,17.408ZM10.82,20.585C10.82,20.585 12.16,20.973 10.82,20.585C9.838,20.301 10.83,20.588 10.82,20.585C10.799,20.579 10.82,20.585 10.82,20.585ZM27.31,17.408L24.194,20.585L21.447,19.333L20.308,21.726L24.193,20.585L24.07,23.733L24.194,20.585L27.31,17.408ZM7.689,17.408L15.406,17.752L15.406,17.751L7.689,17.408L7.689,17.408Z\" style=\"fill:none;fill-rule:nonzero;stroke:black;stroke-width:0.5px;\"/></g>',\n  //     '</svg>'\n  //   ));\n  // }\n\n  modifier canMint() {\n    require(_myTotalSupply < MAX_SUPPLY, 'All tickets have been minted.');\n    require(block.timestamp < mintDeadline, 'Minting period has expired.');\n    require(vipTicketPrice == msg.value || gaTicketPrice == msg.value, \"Ether value sent is not correct.\");\n    _; // Underscores used in function modifiers return and continue execution of the decorated function\n  }\n\n  function mint() public payable canMint returns (uint256) {\n    // canMint happens first or throws\n\n    _tokenIds.increment();\n    uint256 id = _tokenIds.current();\n    _safeMint(msg.sender, id);\n\n    if (msg.value == vipTicketPrice) {\n      vipTicketHolders[id] = true;\n    }\n\n    _myTotalSupply++;\n    payable(_owner).transfer(msg.value);\n\n    setApprovalForAll(marketplaceContract, true);\n\n    return (id);\n  }\n\n  function tokenURI(uint256 id) public view override returns (string memory) {\n    require(_exists(id), \"not exist\");\n    string memory name = string(abi.encodePacked('Ticket #', id.toString() ));\n    string memory description = string(abi.encodePacked((vipTicketHolders[id] ? \"VIP\" : \"General Admission\"), ' access to ETHEventTickets on DATE_OF_EVENT.'));\n\n    bytes memory tokenJsonString = bytes(abi.encodePacked(\n      '{\"name\":\"', name, '\",\"description\":\"',description,'\",', \n      //'\"external_url\":\"https://dappblitz.eth/', id.toString(),'\",',\n      '\"attributes\":[{\"trait_type\":\"Ticket Type\", \"value\":\"', (vipTicketHolders[id] ? \"VIP\" : \"GA\"),  '\"}],',\n      '\"owner\":\"', (uint160(ownerOf(id))).toHexString(20),'\",',\n      '\"image\":\"',generateNftSvgByTokenId(id),'\"}'\n    ));\n\n    return string(\n      abi.encodePacked(\n        'data:application/json;base64,',\n        Base64.encode(bytes(tokenJsonString))\n      )\n    );\n  }\n\n  /* \n    // * size added ???KB\n  */\n  function generateNftSvgByTokenId(uint256 id) public view returns (string memory) {\n    return string(abi.encodePacked(\n      'data:image/svg+xml;base64,',\n      Base64.encode(bytes(abi.encodePacked(\n        '<svg preserveAspectRatio=\"xMinYMin meet\" viewBox=\"0 0 300 300\" xmlns=\"http://www.w3.org/2000/svg\" style=\"fill-rule:evenodd;clip-rule:evenodd;user-select: none;\">',\n          renderNftSvgBottomById(id),\n          renderNftSvgTopById(id),\n          '<style>.s1{font-family:\"BalooDa2-ExtraBold\";} .s4{font-family:\"BalooDa2-Regular\";} .s3{font-size:108px;} .s5{fill:#FFF;} .s2{fill:#FF9200;} .s6{fill:#3C3C3C;} .s7{fill:#532775;}</style>',\n        '</svg>'\n      ))\n    )));\n  }\n\n  function renderNftSvgTopById(uint256 id) internal view returns (string memory) {\n    return string(abi.encodePacked(\n      '<g id=\"top\" transform=\"matrix(0.99784,0,0,1,2.87767e-18,0)\"><path class=\"',(vipTicketHolders[id] ? \"s6\" : \"s7\"), '\" d=\"M30,200L20,200C20,188.962 11.038,180 0,180L0,15.368C0,6.886 6.886,0 15.368,0L285.281,0C293.763,0 300.649,6.886 300.649,15.368L300.649,180.033L300,180C288.962,180 280,188.962 280,200L270,200L270,199L264.99,199L264.99,200L260.981,200L260.981,199L255.971,199L255.971,200L251.962,200L251.962,199L246.952,199L246.952,200L242.944,200L242.944,199L237.933,199L237.933,200L233.925,200L233.925,199L228.914,199L228.914,200L224.906,200L224.906,199L219.896,199L219.896,200L215.887,200L215.887,199L210.877,199L210.877,200L206.367,200L206.367,199L201.357,199L201.357,200L197.349,200L197.349,199L192.338,199L192.338,200L188.33,200L188.33,199L183.319,199L183.319,200L179.311,200L179.311,199L174.301,199L174.301,200L170.292,200L170.292,199L165.282,199L165.282,200L161.273,200L161.273,199L156.263,199L156.263,200L152.255,200L152.255,199L147.244,199L147.244,200L143.236,200L143.236,199L138.225,199L138.225,200L134.217,200L134.217,199L129.207,199L129.207,200L125.198,200L125.198,199L120.188,199L120.188,200L116.18,200L116.18,199L111.169,199L111.169,200L107.161,200L107.161,199L102.15,199L102.15,200L98.142,200L98.142,199L93.132,199L93.132,200L89.123,200L89.123,199L84.113,199L84.113,200L80.104,200L80.104,199L75.094,199L75.094,200L71.086,200L71.086,199L66.075,199L66.075,200L62.067,200L62.067,199L57.056,199L57.056,200L53.048,200L53.048,199L48.038,199L48.038,200L44.029,200L44.029,199L39.019,199L39.019,200L35.01,200L35.01,199L30,199L30,200Z\" /></g>'\n      // '<g id=\"ticketNumber\" transform=\"matrix(0.759459,0,0,0.759459,-97.1428,-1.84609)\"><text x=\"392px\" y=\"208px\" text-align=\"end\" class=\"s1 s2\" style=\"font-size:36px;\">#',id.toString(),'</text></g>',\n      // '<g id=\"dateText\" transform=\"matrix(0.955615,0,0,0.891404,-0.890378,-58.3668)\"><text x=\"24px\" y=\"240px\" class=\"s4 s5\" style=\"font-size:30px;\">10 DEC / ',(vipTicketHolders[id] ? \"VIP\" : \"GA\"),'</text></g>',\n      // '<g id=\"event\" transform=\"matrix(1.06305,0,0,1.06305,-130.636,-63.8082)\"><path id=\"01F\" d=\"M142.518,87.342L173.881,87.342L173.881,98.119L154.373,98.119L154.373,119.136L169.678,119.136L169.678,129.914L154.373,129.914L154.373,162.786L142.518,162.786L142.518,87.342Z\" class=\"s2\" style=\"fill-rule:nonzero;\"/><path id=\"02O\" d=\"M196.73,163.864C190.91,163.864 186.455,162.212 183.366,158.906C180.276,155.601 178.731,150.931 178.731,144.895L178.731,105.233C178.731,99.197 180.276,94.527 183.366,91.222C186.455,87.916 190.91,86.264 196.73,86.264C202.55,86.264 207.005,87.916 210.095,91.222C213.184,94.527 214.729,99.197 214.729,105.233L214.729,144.895C214.729,150.931 213.184,155.601 210.095,158.906C207.005,162.212 202.55,163.864 196.73,163.864ZM196.73,153.086C200.826,153.086 202.873,150.607 202.873,145.65L202.873,104.478C202.873,99.521 200.826,97.042 196.73,97.042C192.634,97.042 190.587,99.521 190.587,104.478L190.587,145.65C190.587,150.607 192.634,153.086 196.73,153.086Z\" class=\"s2\" style=\"fill-rule:nonzero;\"/><path id=\"03X\" d=\"M231.435,124.202L218.393,87.342L230.896,87.342L238.871,111.7L239.087,111.7L247.278,87.342L258.487,87.342L245.446,124.202L259.134,162.786L246.631,162.786L238.009,136.489L237.794,136.489L228.956,162.786L217.747,162.786L231.435,124.202Z\" class=\"s2\" style=\"fill-rule:nonzero;\"/><path id=\"04C\" d=\"M279.719,163.864C274.043,163.864 269.714,162.248 266.732,159.014C263.75,155.781 262.259,151.218 262.259,145.326L262.259,104.802C262.259,98.91 263.75,94.347 266.732,91.114C269.714,87.88 274.043,86.264 279.719,86.264C285.396,86.264 289.725,87.88 292.707,91.114C295.689,94.347 297.179,98.91 297.179,104.802L297.179,112.777L285.971,112.777L285.971,104.047C285.971,99.377 283.995,97.042 280.043,97.042C276.091,97.042 274.115,99.377 274.115,104.047L274.115,146.189C274.115,150.787 276.091,153.086 280.043,153.086C283.995,153.086 285.971,150.787 285.971,146.189L285.971,134.656L297.179,134.656L297.179,145.326C297.179,151.218 295.689,155.781 292.707,159.014C289.725,162.248 285.396,163.864 279.719,163.864Z\" class=\"s2\" style=\"fill-rule:nonzero;\"/><path id=\"05O\" d=\"M321.645,163.864C315.825,163.864 311.37,162.212 308.281,158.906C305.191,155.601 303.646,150.931 303.646,144.895L303.646,105.233C303.646,99.197 305.191,94.527 308.281,91.222C311.37,87.916 315.825,86.264 321.645,86.264C327.465,86.264 331.92,87.916 335.01,91.222C338.099,94.527 339.644,99.197 339.644,105.233L339.644,144.895C339.644,150.931 338.099,155.601 335.01,158.906C331.92,162.212 327.465,163.864 321.645,163.864ZM321.645,153.086C325.741,153.086 327.789,150.607 327.789,145.65L327.789,104.478C327.789,99.521 325.741,97.042 321.645,97.042C317.55,97.042 315.502,99.521 315.502,104.478L315.502,145.65C315.502,150.607 317.55,153.086 321.645,153.086Z\" class=\"s2\" style=\"fill-rule:nonzero;\"/><path id=\"06N\" d=\"M347.62,87.342L362.493,87.342L374.025,132.501L374.241,132.501L374.241,87.342L384.803,87.342L384.803,162.786L372.624,162.786L358.398,107.712L358.182,107.712L358.182,162.786L347.62,162.786L347.62,87.342Z\" class=\"s2\" style=\"fill-rule:nonzero;\"/></g>'\n    ));\n  }\n  function renderNftSvgBottomById(uint256 id) internal view returns (string memory) {\n    string memory ticketType = vipTicketHolders[id] ? \"VIP\" : \"General Admission\";\n    return string(abi.encodePacked(\n      // '<g id=\"stub1\" transform=\"matrix(1.13574,0,0,1,-32.7365,0.204182)\"><path class=\"',(vipTicketHolders[id] ? \"s6\" : \"s7\"), '\" d=\"M266.04,199.796L274.826,199.796C274.826,210.834 282.7,219.796 292.398,219.796L292.968,219.763L292.968,284.428C292.968,292.91 286.918,299.796 279.466,299.796L42.326,299.796C34.874,299.796 28.824,292.91 28.824,284.428L28.824,219.796C38.522,219.796 46.395,210.834 46.395,199.796L55.181,199.796L55.181,200.796L59.583,200.796L59.583,199.796L63.105,199.796L63.105,200.796L67.507,200.796L67.507,199.796L71.029,199.796L71.029,200.796L75.431,200.796L75.431,199.796L78.952,199.796L78.952,200.796L83.354,200.796L83.354,199.796L86.876,199.796L86.876,200.796L91.278,200.796L91.278,199.796L94.8,199.796L94.8,200.796L99.202,200.796L99.202,199.796L102.724,199.796L102.724,200.796L107.126,200.796L107.126,199.796L110.647,199.796L110.647,200.796L115.049,200.796L115.049,199.796L118.571,199.796L118.571,200.796L122.973,200.796L122.973,199.796L126.495,199.796L126.495,200.796L130.897,200.796L130.897,199.796L134.418,199.796L134.418,200.796L138.821,200.796L138.821,199.796L142.342,199.796L142.342,200.796L146.744,200.796L146.744,199.796L150.266,199.796L150.266,200.796L154.668,200.796L154.668,199.796L158.19,199.796L158.19,200.796L162.592,200.796L162.592,199.796L166.113,199.796L166.113,200.796L170.515,200.796L170.515,199.796L174.037,199.796L174.037,200.796L178.439,200.796L178.439,199.796L181.961,199.796L181.961,200.796L186.363,200.796L186.363,199.796L189.885,199.796L189.885,200.796L194.287,200.796L194.287,199.796L197.808,199.796L197.808,200.796L202.21,200.796L202.21,199.796L205.732,199.796L205.732,200.796L210.134,200.796L210.134,199.796L214.096,199.796L214.096,200.796L218.498,200.796L218.498,199.796L222.02,199.796L222.02,200.796L226.422,200.796L226.422,199.796L229.943,199.796L229.943,200.796L234.345,200.796L234.345,199.796L237.867,199.796L237.867,200.796L242.269,200.796L242.269,199.796L245.791,199.796L245.791,200.796L250.193,200.796L250.193,199.796L253.714,199.796L253.714,200.796L258.117,200.796L258.117,199.796L261.638,199.796L261.638,200.796L266.04,200.796L266.04,199.796Z\" /></g>',\n      '<g id=\"stub2\" transform=\"matrix(0.489601,0,0,0.489601,36.3616,34.5613)\"><text x=\"78px\" y=\"455px\" class=\"s1 s3 s5\">#',id.toString(),'</text></g>',\n      '<g id=\"stub3\" transform=\"matrix(0.160667,0,0,0.160667,66.1511,212.911)\"><text x=\"62px\" y=\"410px\" class=\"s1 s3 s2\">',ticketType,'</text></g>'\n    ));\n  }\n\n}",
  "sourcePath": "/Users/httpjunkie/dev/workshops/web3-dubai/nft-marketplace/contracts/ethereum/ETHEventTickets.sol",
  "compiler": {
    "name": "solc",
    "version": "0.8.13+commit.abaa5c0e.Emscripten.clang"
  },
  "schemaVersion": "3.4.10",
  "updatedAt": "2022-11-08T11:40:57.307Z",
  "devdoc": {
    "kind": "dev",
    "methods": {
      "approve(address,uint256)": {
        "details": "See {IERC721-approve}."
      },
      "balanceOf(address)": {
        "details": "See {IERC721-balanceOf}."
      },
      "getApproved(uint256)": {
        "details": "See {IERC721-getApproved}."
      },
      "isApprovedForAll(address,address)": {
        "details": "See {IERC721-isApprovedForAll}."
      },
      "name()": {
        "details": "See {IERC721Metadata-name}."
      },
      "owner()": {
        "details": "Returns the address of the current owner."
      },
      "ownerOf(uint256)": {
        "details": "See {IERC721-ownerOf}."
      },
      "renounceOwnership()": {
        "details": "Leaves the contract without owner. It will not be possible to call `onlyOwner` functions anymore. Can only be called by the current owner. NOTE: Renouncing ownership will leave the contract without an owner, thereby removing any functionality that is only available to the owner."
      },
      "safeTransferFrom(address,address,uint256)": {
        "details": "See {IERC721-safeTransferFrom}."
      },
      "safeTransferFrom(address,address,uint256,bytes)": {
        "details": "See {IERC721-safeTransferFrom}."
      },
      "setApprovalForAll(address,bool)": {
        "details": "See {IERC721-setApprovalForAll}."
      },
      "supportsInterface(bytes4)": {
        "details": "See {IERC165-supportsInterface}."
      },
      "symbol()": {
        "details": "See {IERC721Metadata-symbol}."
      },
      "tokenByIndex(uint256)": {
        "details": "See {IERC721Enumerable-tokenByIndex}."
      },
      "tokenOfOwnerByIndex(address,uint256)": {
        "details": "See {IERC721Enumerable-tokenOfOwnerByIndex}."
      },
      "totalSupply()": {
        "details": "See {IERC721Enumerable-totalSupply}."
      },
      "transferFrom(address,address,uint256)": {
        "details": "See {IERC721-transferFrom}."
      },
      "transferOwnership(address)": {
        "details": "Transfers ownership of the contract to a new account (`newOwner`). Can only be called by the current owner."
      },
      "walletOfOwner(address)": {
        "details": "Returns the tokens owned by a given wallet. For use mainly on frontend.",
        "params": {
          "_wallet": "The wallet to get the tokens of. NEEDS ENUMERABLE // * size added 0.3KB"
        }
      }
    },
    "version": 1
  },
  "userdoc": {
    "kind": "user",
    "methods": {},
    "version": 1
  }
}